{
	"transaction": {
		"blockHash": "0x377f8392b2a443e8fba45a13abeb5c5344263acd9118e910d81c394b9c067eb9",
		"blockNumber": "33969344",
		"from": "0x761d584f1c2d43cbc3f42ecd739701a36dffaa31",
		"gas": "750000",
		"gasPrice": "1000000",
		"hash": "0xb1aa4eb5937d7599f246cd35998dc22ad0acc8fbf8577a847a29f75f269ac891",
		"index": "0x20654bf",
		"input": "0xffaad6a5000000000000000000000000761d584f1c2d43cbc3f42ecd739701a36dffaa31000000000000000000000000000000000000000000000000000000000280de80",
		"l1BlockNumber": "0xf27357",
		"l1Timestamp": "0x6363aa1e",
		"nonce": 28,
		"queueOrigin": "sequencer",
		"r": "0x754d05c846df2549a2313847dce56aa54ffeb41a88b3927271b3feea1b943f1e",
		"rawTransaction": "0xf8a81c830f4240830b71b09479bc8bd53244bc8a9c8c27509a2d573650a8337380b844ffaad6a5000000000000000000000000761d584f1c2d43cbc3f42ecd739701a36dffaa31000000000000000000000000000000000000000000000000000000000280de8037a0754d05c846df2549a2313847dce56aa54ffeb41a88b3927271b3feea1b943f1ea04ce421264d85cf12b7e68d78e2ffe16cd6dc2c9e01945808a10e4b6c7257215b",
		"s": "0x4ce421264d85cf12b7e68d78e2ffe16cd6dc2c9e01945808a10e4b6c7257215b",
		"to": "0x79bc8bd53244bc8a9c8c27509a2d573650a83373",
		"transactionIndex": 0,
		"v": "55",
		"value": "0"
	},
	"transactionReceipt": {
		"blockHash": "0x377f8392b2a443e8fba45a13abeb5c5344263acd9118e910d81c394b9c067eb9",
		"blockNumber": "33969344",
		"contractAddress": null,
		"cumulativeGasUsed": "380818",
		"effectiveGasPrice": "1000000",
		"from": "0x761d584f1c2d43cbc3f42ecd739701a36dffaa31",
		"gasUsed": "380818",
		"l1Fee": "0x347aef31111c",
		"l1FeeScalar": "1",
		"l1GasPrice": "0x315908687",
		"l1GasUsed": "0x1104",
		"logs": [
			{
				"address": "0x7f5c764cbc14f9669b88837ca1490cca17c31607",
				"blockHash": "0x377f8392b2a443e8fba45a13abeb5c5344263acd9118e910d81c394b9c067eb9",
				"blockNumber": "33969344",
				"data": "0x000000000000000000000000000000000000000000000000000000000280de80",
				"logIndex": 0,
				"removed": false,
				"topics": [
					"0xddf252ad1be2c89b69c2b068fc378daa952ba7f163c4a11628f55a4df523b3ef",
					"0x000000000000000000000000761d584f1c2d43cbc3f42ecd739701a36dffaa31",
					"0x00000000000000000000000079bc8bd53244bc8a9c8c27509a2d573650a83373"
				],
				"transactionHash": "0xb1aa4eb5937d7599f246cd35998dc22ad0acc8fbf8577a847a29f75f269ac891",
				"transactionIndex": 0
			},
			{
				"address": "0x7f5c764cbc14f9669b88837ca1490cca17c31607",
				"blockHash": "0x377f8392b2a443e8fba45a13abeb5c5344263acd9118e910d81c394b9c067eb9",
				"blockNumber": "33969344",
				"data": "0xffffffffffffffffffffffffffffffffffffffffffffffffffffffffc1980c3f",
				"logIndex": 1,
				"removed": false,
				"topics": [
					"0x8c5be1e5ebec7d5bd14f71427d1e84f3dd0314c0f7b2291e5b200ac8c7c3b925",
					"0x000000000000000000000000761d584f1c2d43cbc3f42ecd739701a36dffaa31",
					"0x00000000000000000000000079bc8bd53244bc8a9c8c27509a2d573650a83373"
				],
				"transactionHash": "0xb1aa4eb5937d7599f246cd35998dc22ad0acc8fbf8577a847a29f75f269ac891",
				"transactionIndex": 0
			},
			{
				"address": "0x62bb4fc73094c83b5e952c2180b23fa7054954c4",
				"blockHash": "0x377f8392b2a443e8fba45a13abeb5c5344263acd9118e910d81c394b9c067eb9",
				"blockNumber": "33969344",
				"data": "0x0000000000000000000000000000000000000000000000000000e81446834d00000000000000000000000000000000000000000000000000000000006363aa1e",
				"logIndex": 2,
				"removed": false,
				"topics": [
					"0xdd3e7cd3a260a292b0b3306b2ca62f30a7349619a9d09c58109318774c6b627d",
					"0x000000000000000000000000761d584f1c2d43cbc3f42ecd739701a36dffaa31"
				],
				"transactionHash": "0xb1aa4eb5937d7599f246cd35998dc22ad0acc8fbf8577a847a29f75f269ac891",
				"transactionIndex": 0
			},
			{
				"address": "0x62bb4fc73094c83b5e952c2180b23fa7054954c4",
				"blockHash": "0x377f8392b2a443e8fba45a13abeb5c5344263acd9118e910d81c394b9c067eb9",
				"blockNumber": "33969344",
				"data": "0x00000000000000000000000000000000000000000000000f3063d371c00d8335000000000000000000000000000000000000000000000000000000006363aa1e",
				"logIndex": 3,
				"removed": false,
				"topics": [
					"0x3375b905d617084fa6b7531688cc8046feb1f1a0b8ba2273de03c59d8d84416c"
				],
				"transactionHash": "0xb1aa4eb5937d7599f246cd35998dc22ad0acc8fbf8577a847a29f75f269ac891",
				"transactionIndex": 0
			},
			{
				"address": "0x62bb4fc73094c83b5e952c2180b23fa7054954c4",
				"blockHash": "0x377f8392b2a443e8fba45a13abeb5c5344263acd9118e910d81c394b9c067eb9",
				"blockNumber": "33969344",
				"data": "0x000000000000000000000000000000000000000000000000000000000280de80",
				"logIndex": 4,
				"removed": false,
				"topics": [
					"0xddf252ad1be2c89b69c2b068fc378daa952ba7f163c4a11628f55a4df523b3ef",
					"0x0000000000000000000000000000000000000000000000000000000000000000",
					"0x000000000000000000000000761d584f1c2d43cbc3f42ecd739701a36dffaa31"
				],
				"transactionHash": "0xb1aa4eb5937d7599f246cd35998dc22ad0acc8fbf8577a847a29f75f269ac891",
				"transactionIndex": 0
			},
			{
				"address": "0x7f5c764cbc14f9669b88837ca1490cca17c31607",
				"blockHash": "0x377f8392b2a443e8fba45a13abeb5c5344263acd9118e910d81c394b9c067eb9",
				"blockNumber": "33969344",
				"data": "0x000000000000000000000000000000000000000000000000000000000280de80",
				"logIndex": 5,
				"removed": false,
				"topics": [
					"0x8c5be1e5ebec7d5bd14f71427d1e84f3dd0314c0f7b2291e5b200ac8c7c3b925",
					"0x00000000000000000000000079bc8bd53244bc8a9c8c27509a2d573650a83373",
					"0x0000000000000000000000004ecb5300d9ec6bca09d66bfd8dcb532e3192dda1"
				],
				"transactionHash": "0xb1aa4eb5937d7599f246cd35998dc22ad0acc8fbf8577a847a29f75f269ac891",
				"transactionIndex": 0
			},
			{
				"address": "0x7f5c764cbc14f9669b88837ca1490cca17c31607",
				"blockHash": "0x377f8392b2a443e8fba45a13abeb5c5344263acd9118e910d81c394b9c067eb9",
				"blockNumber": "33969344",
				"data": "0x000000000000000000000000000000000000000000000000000000000280de80",
				"logIndex": 6,
				"removed": false,
				"topics": [
					"0xddf252ad1be2c89b69c2b068fc378daa952ba7f163c4a11628f55a4df523b3ef",
					"0x00000000000000000000000079bc8bd53244bc8a9c8c27509a2d573650a83373",
					"0x0000000000000000000000004ecb5300d9ec6bca09d66bfd8dcb532e3192dda1"
				],
				"transactionHash": "0xb1aa4eb5937d7599f246cd35998dc22ad0acc8fbf8577a847a29f75f269ac891",
				"transactionIndex": 0
			},
			{
				"address": "0x7f5c764cbc14f9669b88837ca1490cca17c31607",
				"blockHash": "0x377f8392b2a443e8fba45a13abeb5c5344263acd9118e910d81c394b9c067eb9",
				"blockNumber": "33969344",
				"data": "0x0000000000000000000000000000000000000000000000000000000000000000",
				"logIndex": 7,
				"removed": false,
				"topics": [
					"0x8c5be1e5ebec7d5bd14f71427d1e84f3dd0314c0f7b2291e5b200ac8c7c3b925",
					"0x00000000000000000000000079bc8bd53244bc8a9c8c27509a2d573650a83373",
					"0x0000000000000000000000004ecb5300d9ec6bca09d66bfd8dcb532e3192dda1"
				],
				"transactionHash": "0xb1aa4eb5937d7599f246cd35998dc22ad0acc8fbf8577a847a29f75f269ac891",
				"transactionIndex": 0
			},
			{
				"address": "0x794a61358d6845594f94dc1db02a252b5b4814ad",
				"blockHash": "0x377f8392b2a443e8fba45a13abeb5c5344263acd9118e910d81c394b9c067eb9",
				"blockNumber": "33969344",
				"data": "0x000000000000000000000000000000000000000000007b8d4b3d27a7428239e900000000000000000000000000000000000000000029e5970b4bb7c58097683c000000000000000000000000000000000000000000044d6ce73d8ae074bb41e300000000000000000000000000000000000000000343343b4609fdc69b34200800000000000000000000000000000000000000000347b42795aad185363fdd75",
				"logIndex": 8,
				"removed": false,
				"topics": [
					"0x804c9b842b2748a22bb64b345453a3de7ca54a6ca45ce00d415894979e22897a",
					"0x0000000000000000000000007f5c764cbc14f9669b88837ca1490cca17c31607"
				],
				"transactionHash": "0xb1aa4eb5937d7599f246cd35998dc22ad0acc8fbf8577a847a29f75f269ac891",
				"transactionIndex": 0
			},
			{
				"address": "0x7f5c764cbc14f9669b88837ca1490cca17c31607",
				"blockHash": "0x377f8392b2a443e8fba45a13abeb5c5344263acd9118e910d81c394b9c067eb9",
				"blockNumber": "33969344",
				"data": "0x000000000000000000000000000000000000000000000000000000000280de80",
				"logIndex": 9,
				"removed": false,
				"topics": [
					"0xddf252ad1be2c89b69c2b068fc378daa952ba7f163c4a11628f55a4df523b3ef",
					"0x0000000000000000000000004ecb5300d9ec6bca09d66bfd8dcb532e3192dda1",
					"0x000000000000000000000000625e7708f30ca75bfd92586e17077590c60eb4cd"
				],
				"transactionHash": "0xb1aa4eb5937d7599f246cd35998dc22ad0acc8fbf8577a847a29f75f269ac891",
				"transactionIndex": 0
			},
			{
				"address": "0x7f5c764cbc14f9669b88837ca1490cca17c31607",
				"blockHash": "0x377f8392b2a443e8fba45a13abeb5c5344263acd9118e910d81c394b9c067eb9",
				"blockNumber": "33969344",
				"data": "0xffffffffffffffffffffffffffffffffffffffffffffffffffffa4a3b7d8c6d3",
				"logIndex": 10,
				"removed": false,
				"topics": [
					"0x8c5be1e5ebec7d5bd14f71427d1e84f3dd0314c0f7b2291e5b200ac8c7c3b925",
					"0x0000000000000000000000004ecb5300d9ec6bca09d66bfd8dcb532e3192dda1",
					"0x000000000000000000000000794a61358d6845594f94dc1db02a252b5b4814ad"
				],
				"transactionHash": "0xb1aa4eb5937d7599f246cd35998dc22ad0acc8fbf8577a847a29f75f269ac891",
				"transactionIndex": 0
			},
			{
				"address": "0x625e7708f30ca75bfd92586e17077590c60eb4cd",
				"blockHash": "0x377f8392b2a443e8fba45a13abeb5c5344263acd9118e910d81c394b9c067eb9",
				"blockNumber": "33969344",
				"data": "0x0000000000000000000000000000000000000000000000000000000002812ab0",
				"logIndex": 11,
				"removed": false,
				"topics": [
					"0xddf252ad1be2c89b69c2b068fc378daa952ba7f163c4a11628f55a4df523b3ef",
					"0x0000000000000000000000000000000000000000000000000000000000000000",
					"0x0000000000000000000000004ecb5300d9ec6bca09d66bfd8dcb532e3192dda1"
				],
				"transactionHash": "0xb1aa4eb5937d7599f246cd35998dc22ad0acc8fbf8577a847a29f75f269ac891",
				"transactionIndex": 0
			},
			{
				"address": "0x625e7708f30ca75bfd92586e17077590c60eb4cd",
				"blockHash": "0x377f8392b2a443e8fba45a13abeb5c5344263acd9118e910d81c394b9c067eb9",
				"blockNumber": "33969344",
				"data": "0x0000000000000000000000000000000000000000000000000000000002812ab00000000000000000000000000000000000000000000000000000000000004c3000000000000000000000000000000000000000000343343b4609fdc69b342008",
				"logIndex": 12,
				"removed": false,
				"topics": [
					"0x458f5fa412d0f69b08dd84872b0215675cc67bc1d5b6fd93300a1c3878b86196",
					"0x0000000000000000000000004ecb5300d9ec6bca09d66bfd8dcb532e3192dda1",
					"0x0000000000000000000000004ecb5300d9ec6bca09d66bfd8dcb532e3192dda1"
				],
				"transactionHash": "0xb1aa4eb5937d7599f246cd35998dc22ad0acc8fbf8577a847a29f75f269ac891",
				"transactionIndex": 0
			},
			{
				"address": "0x794a61358d6845594f94dc1db02a252b5b4814ad",
				"blockHash": "0x377f8392b2a443e8fba45a13abeb5c5344263acd9118e910d81c394b9c067eb9",
				"blockNumber": "33969344",
				"data": "0x0000000000000000000000004ecb5300d9ec6bca09d66bfd8dcb532e3192dda1000000000000000000000000000000000000000000000000000000000280de80",
				"logIndex": 13,
				"removed": false,
				"topics": [
					"0x2b627736bca15cd5381dcf80b0bf11fd197d01a037c52b927a881a10fb73ba61",
					"0x0000000000000000000000007f5c764cbc14f9669b88837ca1490cca17c31607",
					"0x0000000000000000000000004ecb5300d9ec6bca09d66bfd8dcb532e3192dda1",
					"0x00000000000000000000000000000000000000000000000000000000000000bc"
				],
				"transactionHash": "0xb1aa4eb5937d7599f246cd35998dc22ad0acc8fbf8577a847a29f75f269ac891",
				"transactionIndex": 0
			},
			{
				"address": "0x4ecb5300d9ec6bca09d66bfd8dcb532e3192dda1",
				"blockHash": "0x377f8392b2a443e8fba45a13abeb5c5344263acd9118e910d81c394b9c067eb9",
				"blockNumber": "33969344",
				"data": "0x00000000000000000000000000000000000000000000000000000000027d3219",
				"logIndex": 14,
				"removed": false,
				"topics": [
					"0xddf252ad1be2c89b69c2b068fc378daa952ba7f163c4a11628f55a4df523b3ef",
					"0x0000000000000000000000000000000000000000000000000000000000000000",
					"0x00000000000000000000000079bc8bd53244bc8a9c8c27509a2d573650a83373"
				],
				"transactionHash": "0xb1aa4eb5937d7599f246cd35998dc22ad0acc8fbf8577a847a29f75f269ac891",
				"transactionIndex": 0
			},
			{
				"address": "0x4ecb5300d9ec6bca09d66bfd8dcb532e3192dda1",
				"blockHash": "0x377f8392b2a443e8fba45a13abeb5c5344263acd9118e910d81c394b9c067eb9",
				"blockNumber": "33969344",
				"data": "0x00000000000000000000000000000000000000000000000000000000027d3219000000000000000000000000000000000000000000000000000000000280de80",
				"logIndex": 15,
				"removed": false,
				"topics": [
					"0xdef5cc95ad9b1c65c586d0fce815ec764b575719636edf58ff2553ae6f110452",
					"0x00000000000000000000000079bc8bd53244bc8a9c8c27509a2d573650a83373",
					"0x00000000000000000000000079bc8bd53244bc8a9c8c27509a2d573650a83373"
				],
				"transactionHash": "0xb1aa4eb5937d7599f246cd35998dc22ad0acc8fbf8577a847a29f75f269ac891",
				"transactionIndex": 0
			},
			{
				"address": "0x79bc8bd53244bc8a9c8c27509a2d573650a83373",
				"blockHash": "0x377f8392b2a443e8fba45a13abeb5c5344263acd9118e910d81c394b9c067eb9",
				"blockNumber": "33969344",
				"data": "0x000000000000000000000000000000000000000000000000000000000280de80",
				"logIndex": 16,
				"removed": false,
				"topics": [
					"0x4174a9435a04d04d274c76779cad136a41fde6937c56241c09ab9d3c7064a1a9",
					"0x000000000000000000000000761d584f1c2d43cbc3f42ecd739701a36dffaa31",
					"0x000000000000000000000000761d584f1c2d43cbc3f42ecd739701a36dffaa31",
					"0x00000000000000000000000062bb4fc73094c83b5e952c2180b23fa7054954c4"
				],
				"transactionHash": "0xb1aa4eb5937d7599f246cd35998dc22ad0acc8fbf8577a847a29f75f269ac891",
				"transactionIndex": 0
			}
		],
		"logsBloom": "0x8008000001000000000000800800020000000042000000000000008080000000000100010000000000000000000400000000004100000400000000000020000010000100000001000000000800000000800404480000100080001004000000000200000002000010100000000800080000000000000000000000001000000000050000000000000000020000000000000000080000800004000000000001000002000000000001000000100000000000000000000000010000000000000001000200000a000000000000002040000100000000080000000000020000000020000014400000000000000200040000000040000000000080020020400000010000",
		"status": "success",
		"to": "0x79bc8bd53244bc8a9c8c27509a2d573650a83373",
		"transactionHash": "0xb1aa4eb5937d7599f246cd35998dc22ad0acc8fbf8577a847a29f75f269ac891",
		"transactionIndex": 0,
		"type": "legacy"
	}
}
